:020000040800F2
:10000000380D0020910100083D1E000899190008D4
:10001000391E0008C90500082D2000080000000056
:10002000000000000000000000000000651F000844
:10003000B508000800000000411E0008691F000804
:10004000AB010008AB010008AB010008AB010008E0
:10005000AB010008AB010008AB010008AB010008D0
:10006000AB010008AB010008AB010008AB010008C0
:10007000AB010008AB010008AB010008AB010008B0
:10008000AB010008AB010008AB010008AB010008A0
:10009000AB010008AB010008AB010008AB01000890
:1000A000AB010008AB010008AB010008AB01000880
:1000B000AB010008AB010008AB010008AB01000870
:1000C000AB010008AB010008AB010008AB01000860
:1000D000AB010008C91F0008AB010008AB01000814
:1000E000AB010008AB010008AB01000800F002F80A
:1000F00000F03FF80AA090E8000C82448344AAF183
:100100000107DA4501D100F034F8AFF2090EBAE880
:100110000F0013F0010F18BFFB1A43F0010318473B
:10012000084A0000284A0000103A24BF78C878C165
:10013000FAD8520724BF30C830C144BF04680C60ED
:10014000704700000023002400250026103A28BF35
:1001500078C1FBD8520728BF30C148BF0B60704739
:10016000642900F03580002070471FB51FBD10B511
:1001700010BD00F0F4F91146FFF7F7FF02F06EFE34
:1001800000F012FA03B4FFF7F2FF03BC00F016FA16
:100190000948804709480047FEE7FEE7FEE7FEE71B
:1001A000FEE7FEE7FEE7FEE7FEE7FEE70448054957
:1001B000054A064B704700006D1F0008ED0000085F
:1001C00038070020380D00203809002038090020A9
:1001D0002DE9F0410646002410687529314616A520
:1001E00010D0AFF30080002802DA404213A507E0E8
:1001F00031688A0701D512A502E0490704D511A587
:10020000012401E0AFF3008000210A2206F1240757
:1002100009E0B0FBF2FCB0FBF2F302FB1C00303053
:1002200078541846491C0028F3D123462A46304604
:10023000BDE8F04100F035B9000000002D000000DD
:100240002B0000002000000010B5431C02E010F855
:10025000011B71B18107FAD14FF0013202C88C1A2B
:100260008C4314EAC211F9D0C01A0A0603D0C01E8A
:1002700010BDC01A10BD0A0401D0801E10BD0902B5
:10028000FCD0401E10BD40EA010370B59B072ED183
:100290004FF00136042A2AD308C810C99D1B9D437C
:1002A000121F15EAC61517D0D8B2E1B2401A50EAAB
:1002B000056110D198B2A1B2401A50EA05410AD1A5
:1002C00023F07F4024F07F41401A50EA052102D1FB
:1002D000180EA0EB146070BDA342DBD018BA21BA8F
:1002E000884201D9012070BD4FF0FF3070BD0AB9BE
:1002F000002070BD10F8013B11F8014B63B1A3421F
:100300000AD1521E08D010F8013B11F8014B1BB165
:10031000A34201D1521EEDD1181B70BD032A40F239
:10032000308010F0030C00F0158011F8013BBCF197
:10033000020F624498BF11F801CB00F8013B38BFAF
:1003400011F8013BA2F1040298BF00F801CB38BFBD
:1003500000F8013B11F0030300F02580083AC0F0DB
:10036000088051F8043B083A51F804CBA0E8081083
:10037000F5E7121D5CBF51F8043B40F8043BAFF3B6
:100380000080D20724BF11F8013B11F801CB48BF10
:1003900011F8012B24BF00F8013B00F801CB48BF46
:1003A00000F8012B704710B5203AC0F00B80B1E87F
:1003B0001850A0E81850B1E81850A0E81850203A9A
:1003C000BFF4F5AF5FEA027C24BFB1E81850A0E8A3
:1003D000185044BF18C918C0BDE810405FEA827CBD
:1003E00024BF51F8043B40F8043B08BF7047D207D4
:1003F00028BF31F8023B48BF11F8012B28BF20F875
:10040000023B48BF00F8012B70474FF0000204295F
:10041000C0F0128010F0030C00F01B80CCF1040C33
:10042000BCF1020F18BF00F8012BA8BF20F8022B67
:10043000A1EB0C0100F00DB85FEAC17C24BF00F80D
:10044000012B00F8012B48BF00F8012B70474FF03B
:10045000000200B5134694469646203922BFA0E814
:100460000C50A0E80C50B1F12001BFF4F7AF090720
:1004700028BFA0E80C5048BF0CC05DF804EB890011
:1004800028BF40F8042B08BF704748BF20F8022B54
:1004900011F0804F18BF00F8012B7047704770476C
:1004A00070472DE9F0470D4699469246044600F103
:1004B00024080168880604D5E06921F01001216054
:1004C00000E00120A84201DD471B00E00027A169F0
:1004D0007A1902EB0900081AA0612078C00602D43C
:1004E0002046AFF30080002608E0D4E901211AF885
:1004F00006009047206A401C761C20624E45F4DBC3
:100500002078C0060AD52046AFF3008006E0D4E983
:10051000012130209047206A401C2062381EA7F13C
:100520000107F4DC07E0D4E9012118F80500904741
:10053000206A401C2062281EA5F10105F3DC20463C
:10054000AFF300802078000602D50220BDE8F087D6
:100550000120FBE70048704778000020704775468F
:10056000FFF7F8FFAE4605006946534620F0070046
:10057000854618B020B5FFF719FEBDE820404FF0C2
:1005800000064FF000074FF000084FF0000BAC469C
:10059000ACE8C009ACE8C009ACE8C009ACE8C009E7
:1005A00021F007018D46704710B50446AFF3008077
:1005B0002046BDE81040FFF7E5BD000001491820C6
:1005C000ABBEFEE726000200FEE7000040F230600E
:1005D000C2F20000012101707047000040F230605B
:1005E000C2F2000000210170704700002DE9F041C7
:1005F00082B040F2FC07C2F200070C4605464FF0FD
:10060000000807F12C014FF410600622CDF8048099
:1006100001F0A8FD97F82C1097F82D2097F82E30B0
:1006200097F82F001143194341EA000397F830105F
:1006300097F831200B43134311D140F60000C0F26C
:10064000DC003E4646F82C0F4FF41060314606227F
:10065000A6F8048001F0F4FDF0783179727943183E
:1006600048401344504045F278611844C1F23421A7
:100670000844BD70C7E9074001AC4FF470602146E3
:10068000042201F0DDFD4FF480702146042201F0C8
:10069000D7FD40F20000C2F200000A21C7F818801E
:1006A0004160A7F8008002B0BDE8F081F0B581B0EC
:1006B00040F2FC06C2F200063078062803D1052479
:1006C000204601B0F0BDB0784001083000F5407020
:1006D00001F016FD222805D0B07802214422002323
:1006E00003F098FC02F030FD96F9001004290DD8B3
:1006F000DFE801F003101D526F000020B06003F02E
:1007000083F801243470204601B0F0BD0124204656
:1007100001B0F0BD022879D1F0690069B06003F042
:10072000C3F9022030700124204601B0F0BD062834
:1007300075D0C0B2052869D14FF4D85001F0E0FC63
:1007400004464FF4D8500321032701F047FDB07849
:1007500044F6163141F2883506F10803C0F600016F
:100760001122009503F04AFC05464FF4D85021466B
:1007700001F034FD15F10D0078D140F20004C2F211
:100780000004A06880470020B0610A2060603780C4
:100790000124204601B0F0BD40F20005C2F2000580
:1007A0002868411C37D0B1690424B1EB500F7FF6A3
:1007B00087AFB068316AC6F80300481C306203F0A6
:1007C00073F90020B0610A2068603480204601B0CF
:1007D000F0BD062830D0C0B2052817D1F178327AA2
:1007E00040F2000500209142C2F20005707031D144
:1007F0003079717A88422DD17079B17A884229D1C5
:10080000B079F17A884225D1042426E001B0BDE810
:10081000F04001F055BD0424204601B0F0BD002099
:10082000B06140F20000C2F200000A2101244160E0
:100830003480204601B0F0BD0020B06140F20000DD
:10084000C2F200000A2141600120308004242046C9
:1008500001B0F0BDE868804703240020B0610A20A1
:10086000686003203080204601B0F0BD02F060FFD8
:10087000B069B169091A02290BD2B169091A0129B3
:1008800007D8B169091A012903D8B169091A0229DF
:10089000EFD3002440F20000B461C2F200000A214C
:1008A000416000697470804734700124204601B0B3
:1008B000F0BD0000704700002DE9F04F82B00E68D7
:1008C000002E00F0FD8040F20C4C41F200424FF649
:1008D000FF7BC4F2010CC4F20102042300240127AF
:1008E000C1F2100B4FF0000A4FF000094FF00F0E4D
:1008F000904208BF032300933EE00123BB402B43FB
:1009000042F82B30D1F804B040F20047C4F201079E
:100910005FEACB22BA6854BF22EA080242EA080220
:10092000BA60DCF800205FEA8B2354BF22EA080299
:1009300042EA0802CCF800207A685FEA8B3354BFA1
:1009400022EA080242EA08027A605FEACB333A6898
:100950004FF6FF7B54BF22EA080242EA08023A60DF
:100960000127C1F2100B0E680AF1010A36FA0AF2E9
:1009700004F1040400F0A48007FA0AF816EA080F4C
:10098000F1D04A685A4511DC122A51D8DFE802F04A
:10099000340A4246505050505050505050505050D1
:1009A00050494D00D1F80C9042E000BF4FF6FF7364
:1009B000C1F221039A420FDC0023C1F211039A42D3
:1009C0001AD00023C1F212039A4215D00023C1F2BB
:1009D00021039A4210D02BE00023C1F222039A4255
:1009E0000AD00023C1F231039A4205D00023C1F29C
:1009F00032039A421CD100BF8A6842B1012A14BF57
:100A0000C0F81480C0F810804FF0080910E04FF0D3
:100A100004090DE0CA6802F1080909E04FF0000975
:100A200006E0CA6802F1040902E0CA6802F10C0992
:100A300022460346BAF1080F24BF203A04331D684A
:100A40000EFA02F6B54309FA02F22A431A60CA798D
:100A5000D2067FF588AF41F21803C4F202031A6888
:100A60004FEA9A0B42F001021A601A6804F00C0770
:100A700002F001020192019A40F20042C4F2010226
:100A8000A2F57E7252F82B3040F600060EFA07F5FA
:100A9000C4F20106B04223EA05050FD040F6004338
:100AA000C4F2010398423FF428AF41F20003C4F2BC
:100AB00001039842009B08BF02231FE700231DE7A4
:100AC00002B0BDE8F08F0000002A08BF09040161F0
:100AD0007047000040F23470C2F2000000687047B6
:100AE00040F2140040F23471C2F20000C2F2000180
:100AF00000780A68104408607047000080B542F230
:100B00000000C4F20200016841F0100101600320FE
:100B100000F07AF80F2000F005F800F027F8002028
:100B200080BD000070B540F21406C2F2000640F22B
:100B300024013278C2F200014FF47A730968B3FBE2
:100B4000F2F20446B1FBF2F1084600F00FFF0F2C61
:100B50004FF0010508D838B94FF0FF302146002288
:100B6000002500F025F87460284670BD82B041F27F
:100B70001800C4F202000168022241F00101016084
:100B8000016801F0010101910199416841F0805132
:100B90004160406800F08050009000980420C4F24A
:100BA0000100016862F31A61016002B07047000041
:100BB00010B54EF60C5CCEF2000CDCF80030C3F33E
:100BC000022E8EF00704042C28BF0424BEF1030378
:100BD0004FF0FF3E0EFA04F438BF0023A1439940C2
:100BE0000EFA03F39A4300F00F03043B11436344EE
:100BF00009010C3300F16042B0F1FF3FC8BF02F5BC
:100C00006443197010BD00004EF60C51CEF2000185
:100C10000A684FF6FF031A4060F30A2242F0806030
:100C200040F0FD70086070472DE9F04381B0002866
:100C300000F0838042F20008C4F202080446D8F8AB
:100C400000000D4600F0070088420CD2D8F80000E2
:100C500020F007002843C8F80000D8F8000000F092
:100C60000700A84269D1206841F204098107C4F253
:100C7000020917D5410705D5D9F8001041F4E06104
:100C8000C9F80010010705D5D9F8001041F46051EA
:100C9000C9F80010D9F80010A26821F0F001114342
:100CA000C9F80010C00741D1D8F8000000F00700D3
:100CB000A8420CD9D8F8000020F007002843C8F853
:100CC0000000D8F8000000F00700A84235D12068E5
:100CD000410707D5D9F80010E26821F4E06111431B
:100CE000C9F80010000708D5D9F80000216920F4E0
:100CF000605040EAC100C9F80000D9F8002002F0B5
:100D00000C00082841F20020C0F27A004BD144F6D2
:100D10000633C2F38341C0F60003595CD20336D4D4
:100D200040F60010C0F23D0048433CE060680128F6
:100D300007D159F8041C89030CD4012001B0BDE887
:100D4000F08359F8041C022802D18901F5D501E08D
:100D50008907F2D5D9F8001021F003010843C9F83A
:100D60000000FFF7B7FE064641F28837D9F80000C9
:100D7000616800F00C00B0EB810F95D0FFF7AAFE80
:100D8000801BB842F2D9032001B0BDE8F083D9F846
:100D9000002044F60433C2F34042C0F600039A5CDC
:100DA0004843B0FBF2F0D9F8001044F6F422C1F346
:100DB0000311C0F60002515C40F2240220FA01F156
:100DC00040F21800C2F200000068C2F20002116096
:100DD000FFF7A8FE002001B0BDE8F0832DE9F04147
:100DE00082B0002867D00446007841F20006C007B0
:100DF000C4F2020624D0706800F00C0004281AD057
:100E0000706800F00C00082802D17068C00312D48A
:100E10006068002800F04181B0F5803F07D031685C
:100E2000B0F5A02F40F06E8141F480203060306832
:100E300040F480306CE13068800301D56068D0B345
:100E40002078800718D5706810F00C0F07D07068F4
:100E500000F00C00082856D17068C00353D43068E5
:100E6000800702D52069012825D13068616920F00A
:100E7000F80040EAC1003060207800071FD42078D5
:100E8000400731D4E56995B1706800F00C0008287E
:100E900040F08B80012D0ED07068216A00F4803202
:100EA0008A4208D1616A00F47010884203D10020A0
:100EB00002B0BDE8F081012002B0BDE8F081A06978
:100EC000B8B30020C4F242200121C0F88014FFF71B
:100ED00001FE0546706A800700F18A80FFF7FAFD7F
:100EE000401B0228F6D920E1F069C00033D4F06934
:100EF0004FF0010840F08050F061F06900F0805040
:100F00000090009829E02069002840F20000C4F217
:100F1000422000F0978001210160FFF7DBFD0546CC
:100F200030688007A1D4FFF7D5FD401B0228F7D910
:100F3000FBE00020C4F242200021C0F88014FFF73B
:100F4000C9FD0546706A800799D5FFF7C3FD401BB0
:100F50000228F7D9E9E04FF0000847F20007C4F291
:100F600000073868C00510D4386840F480703860D5
:100F7000FFF7B0FD054600BF3868C00505D4FFF790
:100F8000A9FD401B6428F7D9CFE0E06800286BD0AA
:100F9000012806D0316A052840F0968041F004000F
:100FA0003062306A40F0010094E00027C4F242272A
:100FB00000203866FFF78EFD022D05460CD100BFDC
:100FC0003068800140F1B580FFF784FD401B0228A6
:100FD0004FF00300F4D96BE7306880017FF567AF0D
:100FE000FFF778FD401B02284FF00300F4D95FE7BC
:100FF00040F22400C2F20000006844F6D351C1F26E
:101000006201A0FB0101480A019000BF00BF0198E6
:10101000411E002801913FF432AF00BF0198411EEC
:10102000002801913FF42BAF00BF0198411E00281A
:1010300001913FF424AF00BF0198411E00280191A7
:10104000E4D11CE700210160FFF744FD054600BF25
:10105000306880077FF510AFFFF73CFD401B02288A
:101060004FF00300F4D923E7306A20F0010030622A
:10107000306A20F004003062FFF72CFD054641F293
:10108000883700BF306A800733D5FFF723FD401B48
:10109000B8424FF00300F5D90AE7306820F48030F9
:1010A0003060306820F480203060FFF713FD054683
:1010B000306880037FF5C4AEFFF70CFD401B642849
:1010C0004FF00300F4D9F3E621F001003062306AFA
:1010D00020F004003062FFF7FDFC054641F288373E
:1010E000306A800705D4FFF7F5FC401BB842F7D9FA
:1010F0001BE0B8F1000F3FF4C5AEF06920F080505E
:10110000F061BFE621F480303060306820F4802048
:101110003060FFF7DFFC0546306880033FF590AE96
:10112000FFF7D8FC401B6428F6D9032002B0BDE8C5
:10113000F081206AB0F5803F05D17168A26821F482
:101140000031114371607168626A21F474111043B7
:101150000843706001203866FFF7BCFC044600BFFE
:10116000306880013FF5A3AEFFF7B4FC001B0228F6
:101170004FF00300F4D99BE670B538B10446406ADD
:1011800030B10020206104F1140007E0012070BD9F
:101190006068B0F5827F03D004F11C00002101607B
:1011A0000026A66294F851004FF0000C38B9204692
:1011B00084F8506000F03AF8A06A00F4005C022164
:1011C00084F8511094E80E00E0680D6802F4827211
:1011D00025F040050D6003F404431A44236900F42C
:1011E0000060104403F002026369104403F001023E
:1011F000A369E569104403F40072104405F0380255
:10120000256A104405F08002104340EA0C00086093
:10121000042000EA13404860C86920F40060C861F7
:101220000120666584F85100304670BD70B586B007
:10123000002640F600040596CDE90366C4F20104D9
:10124000006804F520518842029601D006B070BDB6
:1012500041F21800C4F20200016802AD41F480516D
:101260000160016801F4805101910199016841F028
:10127000040101600068294600F004000190019813
:10128000A020029002200390032005902046FFF743
:1012900013FB4020CDE90206204629460496FFF7BD
:1012A0000BFB06B070BD00002DE9F04182B0044692
:1012B00090F85100012818D160681D4617460E4667
:1012C000B0F5827F01D1A06898B1FFF703FC80469A
:1012D000002E4FF0010018BF002F02D102B0BDE870
:1012E000F08194F85000012810D1022002B0BDE82E
:1012F000F081042084F851002046314632463B46B6
:10130000009500F0CDF902B0BDE8F081012084F82D
:1013100050000420002184F851006165A663A7876E
:10132000E7872163A186E186A2682068B2F5004FB5
:101330002164616437D0016849063FD5E268E18FD6
:10134000002A43D0002972D0691C1AD08168C907CD
:1013500006D1FFF7BFFBA0EB0800A84208D398E036
:10136000C068A16B21F8020BA163E08F0138E08710
:10137000E08F00285BD020688168C907E9D0EFE7DB
:1013800020688168C90702D1FFF7A4FB07E0C068A5
:10139000A16B21F8020BA163E08F0138E087E08F99
:1013A0000028EDD143E0016821F0400101600168AF
:1013B00021F48041016001684906BFD4016841F011
:1013C00040010160E268E18F002ABBD179B3691C5A
:1013D0001BD000BF8168C90706D1FFF77BFBA0EBDC
:1013E0000800A84209D354E0007BA16B0870A06BF1
:1013F0000130A063E08F0138E087E08FB8B120684A
:101400008168C907E9D0EFE720688168C90702D180
:10141000FFF760FB08E0007BA16B0870A06B013058
:10142000A063E08F0138E087E08F0028ECD160688E
:10143000B0F5827F11D1A068B0F5004F02D0B0F5B1
:10144000806F0AD12168B0F5806F0A6822F04002EF
:101450000A6002D12046012101E0204680210022BD
:101460002B46CDF8008000F0EDFC28B1606D40F017
:101470002000606520206065012084F85100002074
:1014800084F85000606D002818BF012002B0BDE84C
:10149000F081012084F85100002084F850000320DE
:1014A00002B0BDE8F08100002DE9F04182B01D4698
:1014B00016460F460446FFF70DFB94F8511001291C
:1014C0000DD18046002F4FF0010018BF002E02D131
:1014D00002B0BDE8F08194F85000012803D1022049
:1014E00002B0BDE8F081012084F850000320002103
:1014F00084F8510061652763A686E686A163A1870B
:10150000E187A0682164B0F5004F2068616407D1CD
:10151000016821F040010160016841F480410160EF
:101520000168490603D4016841F040010160616827
:10153000731EE268B1FA81F1B3FA83F349095B09DA
:10154000B2F5006F41EA030139D131B137F8021B1E
:10155000C1602763E18E0139E186E18E00296FD0F9
:10156000691C1AD08168890706D4FFF7B3FAA0EB8B
:101570000800A84208D345E0216B31F8022BC26075
:101580002163E08E0138E086E08E002858D0206884
:1015900081688907E9D5EFE720688168890702D467
:1015A000FFF798FA07E0216B31F8022BC260216344
:1015B000E08E0138E086E08E0028EDD140E039B1C0
:1015C00039780173206B01302063E08E0138E086AA
:1015D000E08EA8B3681C0BD122E0216B097801735F
:1015E000206B01302063E08E0138E086E08E38B356
:1015F000206881688907F0D4FFF76CFAA0EB080037
:10160000A842F3D3012084F85100002084F8500050
:10161000032002B0BDE8F081FFF75CFAE08E78B1FC
:10162000206881688907F7D5216B09780173206BE1
:1016300001302063E08E0138E086E08E0028EFD193
:101640002046022101222B46CDF8008000F0FAFB53
:1016500040B92046802100222B46CDF8008000F0C2
:10166000F1FB28B1606D40F02000606520206065CE
:10167000A06838B9002001902068C1680191806895
:1016800001900198012084F85100002084F8500056
:10169000606D002818BF012002B0BDE8F081000095
:1016A0002DE9F04383B01E4615460F460446FFF76A
:1016B00011FA94F851108146012908D1002F4FF0FA
:1016C000010018BF002D0ED103B0BDE8F0836068A3
:1016D000B0F5827F0DD104294FF00200F4D1A1684A
:1016E0000029EBD0F0E7002EEED094F8500001284E
:1016F00003D1022003B0BDE8F083012084F850003C
:1017000094F85100002104281CBF052084F85100E2
:101710006165A563E687A6872763E6862068A686B7
:10172000216461640168490603D4016841F0400105
:1017300001606168731EE268B1FA81F1B3FA83F364
:10174000DDF8288049095B09B2F5006F41EA030121
:1017500064D131B137F8021BC1602763E08E0138D4
:10176000E086012518F1010031D101E0FFF7B2F95F
:10177000E08E18B9E08F002800F0B88020688168FA
:1017800089070CD5E18E012D09D141B1216B0025CE
:1017900031F8022BC2602163E18E0139E186816854
:1017A000C907E3D0E18F0029E0D0C068A16B012513
:1017B00021F8020BA163E08F0138E087D6E700BF74
:1017C000FFF788F9A0EB0900404580F0AE80E08E7D
:1017D00018B9E08F002800F08980206881688907A7
:1017E0000CD5E18E012D09D141B1216B002531F8D5
:1017F000022BC2602163E18E0139E1868168C9074D
:10180000DED0E18F0029DBD0C068A16B012521F873
:10181000020BA163E08F0138E087D1E739B1397855
:101820000173206B01302063E08E0138E0860125D2
:1018300018F1010032D101E0FFF74CF9E08E10B948
:10184000E08F002852D02068816889070ED5E18E8C
:10185000012D0BD151B1216B002509780173216B4A
:10186000206801312163E18E0139E1868168C90771
:10187000E2D0E18F0029DFD0C068A16B012508709C
:10188000A06B0130A063E08F0138E087D4E700BF90
:10189000FFF720F9A0EB0900404546D2E08E08B9D9
:1018A000E08F18B32068816889070ED5E18E012D7D
:1018B0000BD151B1216B002509780173216B206890
:1018C00001312163E18E0139E1868168C907DFD0EA
:1018D000E18F0029DCD0C068A16B01250870A06BE6
:1018E0000130A063E08F0138E087D1E72046022174
:1018F00001224346CDF8009000F0A4FA40B92046FA
:10190000802100224346CDF8009000F09BFAB0B150
:10191000606D40F02000606520206065002084F844
:101920005000012003B0BDE8F083012084F851008D
:10193000002084F85000032003B0BDE8F083A068C5
:1019400038B9002002902068C16802918068029036
:101950000298012084F85100002084F85000606D46
:10196000002818BF012003B0BDE8F083411E00200D
:10197000B0EB116F1CBF012070474EF21002CEF287
:10198000000251604EF62351CEF20001F0230B709D
:101990000721906011607047FEE7000070B582B0CB
:1019A000064601A814460D46019301F0CFFCC0F392
:1019B000C0012970010901983170694600F052F8A0
:1019C000DDE900210144022A019104DB01A801F0B4
:1019D000C3FC2080012002B070BD00002DE9F0435F
:1019E00083B00D460D990446002602A89846174676
:1019F0000291019601F0AAFC00F0F00130292CD1EF
:101A0000C0F3C0012170C0F34101296000F0010161
:101A10000298DDF82890397001A900F023F80299A6
:101A20000646084401990290471802A948463A46DA
:101A300001F09AFC88B10299781A0ED42A680C9C9D
:101A40000B9D012A06DB02A801F086FC0299A8F88A
:101A50000000781A012620602960304603B0BDE8F6
:101A6000F083000010B540F2781CC2F2000C002395
:101A7000CCF800000B60034613F9012BCCF80030C2
:101A800002F07F03002A0B605CBF012010BD90F9BB
:101A9000014000F1020E04F07F0243EAC213B4F1E8
:101AA000FF3FCCF800E00B60C4BF022010BD90F9EE
:101AB0000240C21CCCF8002004F07F0243EA8233CB
:101AC000B4F1FF3F0B60C4BF032010BD90F9034089
:101AD000021D04F07F00CCF8002043EA40520420AD
:101AE000002C48BF05200A6010BD000080B54FF0F3
:101AF000FF3200BFCB1701EB536C2CF07F03A1EB3F
:101B0000030E7F29C8BF4EF0800E7F294FEAEC11EB
:101B100000EB020302F1010283F801E0EADC501C51
:101B200080BD000070B505680C4625B12846FEF75B
:101B30008BFB064601E0D0E901652046FEF784FBF9
:101B400086421CBF002070BD284621463246FEF763
:101B50009AFBB0FA80F0400970BD00007F28BEBF3C
:101B600002210844704743F6FF718842BEBF03213B
:101B7000084470474FF6FE72C0F21F0205219042E2
:101B8000B8BF0421084470472DE9F04F8BB081465F
:101B9000006A002876D009AF384690468A4600F0A1
:101BA000FBF9D9F80410384600F0EEF998F8003047
:101BB000581E02280CD2D9F800004FF6FF71421CC3
:101BC000884208BF0122C9F80020A8F8042001E0DB
:101BD000B8F8042098F80170D9F80810D9F8100066
:101BE000D8E9025492B20026CDE900720022CDE974
:101BF00002A6CDE90465069400F0C4F8012841DB93
:101C0000834600270DF1240A504600F0C9F998B91F
:101C1000D9F85050D9F81000AE68C419504600F0F9
:101C2000C9F90346284621465A46B047B0F1FF3F5E
:101C300002DD07445F45E7DB5F4523D1D9F8181083
:101C400009F1540000F094F998F80000022815D02A
:101C500001281CD109A800F0A3F998B909AD00BF6B
:101C60004846294600F070FB042823D0284600F09F
:101C700097F900284FF0FF30F2D03EE009A800F0BD
:101C80008FF940B14FF0FF300BB0BDE8F08F00206E
:101C90000BB0BDE8F08F09AD4846294600F054FB73
:101CA00007281AD0284600F07BF900284FF0FF30B3
:101CB000F2D022E0D9F80C70D9F8143008A80DF150
:101CC00021010DF122020097FFF768FE013818BFCD
:101CD0004FF0FF300BB0BDE8F08FD9F80C70D9F899
:101CE000143008A80DF121010DF122020097FFF731
:101CF00055FE013818BF4FF0FF300BB0BDE8F08F34
:101D000070B582B00429019003DA6FF0010002B0CF
:101D100070BD911FB1FA81F149094900044603F0F1
:101D2000010041EA021141EAC00001AE069DC1B2C4
:101D3000304602F095FE01980221FFF7D7FE019987
:101D4000084401903046294602F090FE0198001B9D
:101D500002B070BD10B582B00229019003DA6FF0B5
:101D6000010002B010BD044601A8C02102F078FEB7
:101D700001980021FFF7BAFE019908440190001B69
:101D800002B010BD2DE9F04F81B0DDE90C7B1546A6
:101D90000E9A88460446DDF8409000903846594631
:101DA0001E4600F043F8484400F1020A002EC8BF66
:101DB00000F1040A5046FFF7D1FE404504DD6FF004
:101DC000010001B0BDE8F08F0A9806F0030100F0B1
:101DD000010065F3C30040EA41006D46C846DDF8E6
:101DE0003C9000F13001284602F03AFE009851463E
:101DF000FFF77CFE00990E9B084400902846394668
:101E00005A4602F041FE012E03DB0B99684602F0B0
:101E10002DFE009849464246FEF780FA009840445D
:101E20000090001B01B0BDE8F08F000000280CBF3F
:101E30000846FEF709BA7047FEE70000FEE700001B
:101E4000704700002DE9F04381B0089C9846154684
:101E50000E468146FEF73EFE201A00EB0804FEF710
:101E600039FE40F22401C2F200010968C1F3CB310E
:101E700061430091D9F800108A683240921BB2FA8F
:101E800082F25209AA423DD0074618F1010031D032
:101E9000FEF720FEC01BA04238D20098009900280F
:101EA000A1F101010091D9F80010896808BF04462A
:101EB00001EA0600801BB0FA80F04009A842E7D191
:101EC00020E000BF88683040801BB0FA80F04009F5
:101ED000A84217D088683040801BB0FA80F04009D3
:101EE000A8420FD088683040801BB0FA80F04009CB
:101EF000A84207D088683040801BB0FA80F04009C3
:101F0000A842DFD1002001B0BDE8F083D9E900018B
:101F10004268B1F5827F22F0E00242600BD1D9F82D
:101F20000810B1F5004F02D0B1F5806F03D1016800
:101F300021F040010160D9F82810B1F5005F07D108
:101F4000016821F400510160016841F40051016011
:101F5000012089F85100002089F85000032001B0C9
:101F6000BDE8F08370470000FEF7BABD704700007F
:101F700040F27412C2F2000212684FF47A7301FB4D
:101F8000032141607047000040F27412C2F2000267
:101F900012681144416070470021416070470000A1
:101FA00040F27411C2F2000140680968401AC00F83
:101FB0007047000040F27411C2F2000140680968E5
:101FC000401A20EAE070704780B584B043F6040000
:101FD000C4F20100016840F23010C2F20000C26891
:101FE00040F23163C2F200039954511C0529C160CB
:101FF00014D10021C1600AA002900A20ADF800109F
:102000008DF80210039040F27C1040F26E01C2F293
:102010000000C2F200016A46FFF7B6FD04B080BDC1
:10202000434F4E4E454354494E470000FEE70000E3
:1020300070B582B044F2417044F25171C0F60000B4
:10204000C0F6000101F014FB44F21D7044F27571FA
:10205000C0F60000C0F6000101F026FB44F2097052
:1020600044F26171C0F60000C0F6000101F03EFBD1
:102070004FF00230CDE900006846014602F098FBBF
:1020800040F25404C2F200044FF4106021460622CC
:1020900000F0D6F840F2D811C2F200010020FEF79D
:1020A000A5FA40F2CD50C0F6000040F2DD52C0F675
:1020B0000002014601F0BEFA40F23065C2F20005AE
:1020C000287858B94DF6F106CFF6FF76FEF7EEFA0E
:1020D00028781EB1002806F10106F7D0287868B1EB
:1020E000A01D00F0A7FC04F10E0000F095FC04F127
:1020F0000A0000F0ADFC204602F01CFC02B070BDEE
:10210000B0B582B040F22805C2F20005E968044685
:10211000884768698047686A70B1AA6A62B1200C12
:102120008DF80500200A8DF806000DF10500032149
:102130008DF8074090470AE0296AC4F307408847B2
:10214000296AC4F307208847296AE0B28847E8690A
:102150008047A9690446884728698047204602B01D
:10216000B0BD0000F0B581B040F22807C2F2000710
:102170000D46F96814460646884778698047786AAC
:1021800090B1BA6A82B1300C8DF80100300A8DF836
:1021900002000DF1010003218DF8036090477A6A77
:1021A00028462146904713E0396AC6F3074088471E
:1021B000396AC6F307208847396AF0B288473CB1CC
:1021C000013D00BFF8698047013C05F8010FF9D1D6
:1021D000B86980473869804701B0F0BDF0B581B07B
:1021E00040F22806C2F200060C46F1680546884710
:1021F00070698047B26A45F004076AB1280C8DF80F
:102200000000280A8DF80100684604218DF802704C
:102210008DF8034090470DE0316AC5F307408847C9
:10222000316AC5F307208847316AF8B28847316AB6
:1022300020468847B06980473069804701B0F0BDCB
:102240002DE9F04182B040F22807C2F2000788462B
:10225000F96814460646884778698047BA6A46F0A6
:10226000040582B1300C8DF80500300A8DF80600A7
:102270000DF1050003218DF807509047BA6A4046DA
:102280002146904714E0396AC6F307408847396A07
:10229000C6F307208847396AE8B2884744B1A8F1F5
:1022A000010500BF396A15F8010F8847013CF9D1D3
:1022B000B86980473869804702B0BDE8F081000006
:1022C000B0B540F2FC04C2F2000494F90100012808
:1022D00012DC40F20005C2F200056868A16988427C
:1022E00024BF0120B0BD94F90000042818BF0228C3
:1022F0000ED101F0D9FB0FE094F90000012815D0B0
:10230000042801D0022814D101F07EFA01200EE049
:10231000012801D101F078FA0020A061A06961785C
:102320000A306860013101206170B0BD002020706A
:1023300000E0012040F200020021C2F200020A2364
:10234000A16153606170B0BD2DE9F04F8DB0056D96
:10235000824646696C6808468846FFF72BFE0346AE
:10236000284631460122A04701286ED14046FFF79A
:1023700021FE81460127002605240DF1180B00BF20
:10238000013C12D0DAF850005946456801224B460C
:10239000A847012809D19DF9180000F07F0107FB2B
:1023A000016600284FEAC717EAD4DAF8140031466C
:1023B0000130FFF79BFB012E11DBDAF81410DAF87D
:1023C000505008446C6800F101094046FFF7F2FDE7
:1023D0000346284649463246A047B04235D1DAF88E
:1023E00014300D211878B1EB101F4FEA101435D0BE
:1023F000052C37D0032C2AD10BF1040C0BF108016A
:10240000DAF80C700BF10C060AAD0BF102000BF1BF
:102410000102CDE90051CDE9026305A963460497A5
:10242000FFF7DCFA012815D105980AA98DF81800E4
:1024300006AA504600F0E6F89DF8180038B10128C9
:102440004CD002287BD1052249E04FF6FF7450465C
:1024500000F0B4FC20460DB0BDE8F08F00208AF8F3
:102460001C00F4E7DAF80C7005A80AA906AA009780
:10247000FFF794FA012862D1DAF80810DAF81000B0
:10248000BDF8187006220023A3460097FFF738FC1A
:10249000012854DB814600274046FFF781FD98B9AB
:1024A000DAF85050DAF81000AC68C6194046FFF769
:1024B00081FD0346284631464A46A047B0F1FF3F1A
:1024C00002DD07444F45E7DB4F4538D1DAF81810F5
:1024D0000AF15400FFF74CFD5C46B8E70422DAF835
:1024E0000810DAF81000BDF81C7000230097FFF701
:1024F00007FC012823DB814600264046FFF750FDFC
:10250000A0B9DAF85050DAF81000D5F808B08719F9
:102510004046FFF74FFD0346284639464A46D8470E
:10252000B0F1FF3F02DD06444E45E6DB4E4506D1E5
:10253000DAF818100AF15400FFF71AFD87E74FF098
:10254000FF3420460DB0BDE8F08F000010B540F21A
:10255000FC04C2F2000404F108014FF4706004228C
:10256000FFF76EFE04F110014FF4A0600422FFF7A4
:1025700067FE04F10C014FF480700422BDE81040A6
:10258000FFF75EBE80B500208021FFF727FE002008
:10259000FFF7B6FD40F2FC00C2F2000000F12C0192
:1025A0004FF410600622BDE88040FFF749BE0000EE
:1025B00010B500208021FFF711FE0020FFF7A0FDDD
:1025C00040F2FC04C2F2000404F108014FF4706010
:1025D0000422FFF735FE04F110014FF4A06004223D
:1025E000FFF72EFE04F10C014FF480700422FFF778
:1025F00027FE04F12C014FF410600622BDE81040C4
:10260000FFF71EBE2DE9F04782B0436A06469046AA
:10261000002B8A465ED050461946FFF783FA60B118
:10262000B16A002956D06846CDE9008A88474FF044
:102630000009F16A002952D1AEE0716ADAE90103BA
:102640000C78012818443CDBDCB3471E1D782F2C86
:1026500002D02F2D00F0D981232C3A4623D02B2CE9
:1026600006D0AC4236D1232C3A461CD02B2C19D1A3
:102670005A1C824216D215782F2D13D09C1C8442EE
:1026800011D225782F2D0ED0DA1C824213D2157864
:102690002F2D10D00433834205D21D782F2DE7D182
:1026A00001E000BF1A4611F8014F531C834208D2C3
:1026B000002CCBD105E0224611F8014F531C834278
:1026C000F6D383424FF0FF3908BF002CA8D0F16A3F
:1026D00029B961E04FF0FF39F16A00295CD050461A
:1026E000FFF720FA48B1316B002955D06846CDE993
:1026F000008A88474FF000094EE0F16ADAE90103E9
:102700000F780128184443DB002F41D0441E00BF3E
:102710001D782F2F01D02F2D3ED0232F224629D0D8
:102720002B2F0DD0AF4237D12B2F09D01A46232F94
:1027300008BF224611F8017F531C83421FD327E0B4
:102740005A1C824215D217782F2F12D09F1C874215
:1027500010D23D782F2D0DD0DA1C824212D215787E
:102760002F2D0FD00433834204D21F782F2FE7D1AF
:1027700000E01A4611F8017F531C834208D2002F53
:10278000C6D105E03A4611F8017F531C8342F6D3C7
:10279000834208BF002FA6D0716B00295CD0504641
:1027A000FFF7C0F948B1B16B002955D06846CDE9B3
:1027B000008A88474FF000094EE0716BDAE90103A7
:1027C0000F780128184443DB002F41D0441E00BF7E
:1027D0001D782F2F01D02F2D3ED0232F224629D018
:1027E0002B2F0DD0AF4237D12B2F09D01A46232FD4
:1027F00008BF224611F8017F531C83421FD327E0F4
:102800005A1C824215D217782F2F12D09F1C874254
:1028100010D23D782F2D0DD0DA1C824212D21578BD
:102820002F2D0FD00433834204D21F782F2FE7D1EE
:1028300000E01A4611F8017F531C834208D2002F92
:10284000C6D105E03A4611F8017F531C8342F6D306
:10285000834208BF002FA6D0F16B00295CD0504600
:10286000FFF760F948B1316C002955D06846CDE9D1
:10287000008A88474FF000094EE0F16BDAE9010366
:102880000F780128184443DB002F41D0441E00BFBD
:102890001D782F2F01D02F2D3ED0232F224629D057
:1028A0002B2F0DD0AF4237D12B2F09D01A46232F13
:1028B00008BF224611F8017F531C83421FD327E033
:1028C0005A1C824215D217782F2F12D09F1C874294
:1028D00010D23D782F2D0DD0DA1C824212D21578FD
:1028E0002F2D0FD00433834204D21F782F2FE7D12E
:1028F00000E01A4611F8017F531C834208D2002FD2
:10290000C6D105E03A4611F8017F531C8342F6D345
:10291000834208BF002FA6D0716C00295CD05046BE
:10292000FFF700F948B1B16C002955D06846CDE9F0
:10293000008A88474FF0000951E0716CDAE9010321
:102940000C780128184443DB002C41D0471E00BFFF
:102950001D782F2C01D02F2D3ED0232C3A4629D084
:102960002B2C0DD0AC4237D12B2C09D01A46232C5E
:1029700008BF3A4611F8014F531C83421FD327E08A
:102980005A1C824215D215782F2D12D09C1C8442DD
:1029900010D225782F2D0DD0DA1C824212D2157854
:1029A0002F2D0FD00433834204D21D782F2DE7D171
:1029B00000E01A4611F8014F531C834208D2002C44
:1029C000C6D105E0224611F8014F531C8342F6D3CD
:1029D000834208BF002CA6D019F1010003D048465D
:1029E00002B0BDE8F087F16C49B16846CDE9008AD4
:1029F00088474FF00009484602B0BDE8F0874FF025
:102A0000FF39484602B0BDE8F0874FF0FF39F16A60
:102A100000297FF464AEBFE640F2FC01C2F200017F
:102A20000A7B02704A7B42708A7B8270C97BC170CC
:102A30007047000040F2FC01C2F200010A7A027005
:102A40004A7A42708A7A8270C97AC17070470000EF
:102A500040F2FC01C2F200010A7C02704A7C427022
:102A60008A7C8270C97CC170704700002DE9F04FEC
:102A700083B04001083000F5185B00F51C5440F2AB
:102A800028064FEA1B214FEA1429C2F200064FF034
:102A9000000A019117E000BF316A00208847316ABF
:102AA00048468847316AE0B28847F0698047B16993
:102AB000074688473069804745EA070A1FFA8AF0C7
:102AC000804500F08D80F068804770698047706AAB
:102AD00070B1B26A62B100208DF80900019803213B
:102AE0008DF80A000DF109008DF80BB0904709E050
:102AF000316A00208847316A01988847316A5FFA55
:102B00008BF08847F0698047B1690746884730698C
:102B10008047F0683D02804770698047706A68B1FD
:102B2000B26A5AB100208DF809000DF109000321A5
:102B30008DF80A908DF80B40904708E0316A00202C
:102B40008847316A48468847316AE0B28847F06969
:102B50008047B169074688473069804755EA0708CA
:102B6000ACD0F068804770698047706A70B1B26A13
:102B700062B100208DF80900019803218DF80A0048
:102B80000DF109008DF80BB0904709E0316A002083
:102B90008847316A01988847316A5FFA8BF0884725
:102BA000F0698047B1690746884730698047F06817
:102BB0003D02804770698047706A00283FF46CAF1F
:102BC000B26A002A3FF468AF00208DF809000DF1C9
:102BD000090003218DF80A908DF80B40904764E7B7
:102BE00003B0BDE8F08F00002DE9F04F85B042F250
:102BF000080141EA401B0BF58070050A40F22808E5
:102C00000190C0B24FEA1B24C2F2000803905FFAA1
:102C10008BF04FF0000902901DE000BFD8F82010A3
:102C200000208847D8F8201028468847D8F8201078
:102C300003988847D8F81C008047D8F81810074632
:102C40008847D8F81000804746EA07091FFA89F03C
:102C5000824500F0AF80D8F80C008047D8F8140007
:102C60008047D8F8240078B1D8F8282062B1002035
:102C70008DF811000DF1110003218DF812408DF82F
:102C800013B090470CE000BFD8F820100020884710
:102C9000D8F8201020468847D8F820100298884796
:102CA000D8F81C008047D8F8181007468847D8F88D
:102CB00010008047D8F80C003E028047D8F8140076
:102CC0008047D8F8240078B1D8F8282062B10020D5
:102CD0008DF81100019803218DF813000DF11100FA
:102CE0008DF8125090470BE0D8F82010002088474C
:102CF000D8F8201028468847D8F82010039888472D
:102D0000D8F81C008047D8F8181007468847D8F82C
:102D10001000804756EA070A98D0D8F80C00804780
:102D2000D8F814008047D8F8240078B1D8F82820C3
:102D300062B100208DF811000DF1110003218DF812
:102D400012408DF813B090470CE000BFD8F8201067
:102D500000208847D8F8201020468847D8F820104F
:102D600002988847D8F81C008047D8F81810074602
:102D70008847D8F810008047D8F80C003E028047FA
:102D8000D8F814008047D8F8240000283FF446AF54
:102D9000D8F82820002A3FF441AF00208DF8110018
:102DA000019803218DF813000DF111008DF81250D8
:102DB00090473FE705B0BDE8F08F00002DE9F04FE8
:102DC00083B083468069002844D00BF15408404604
:102DD000FFF7E6F810B19BF81C0020B14FF0FF3070
:102DE00003B0BDE8F08F01AE3046FFF7D5F83046AE
:102DF0004FF47A71FFF7C8F8DBF80810DBF8100021
:102E0000FEF7A8FF0128E9DB824600260DF1040940
:102E10004846FFF7C5F898B9DBF85050DBF81000CA
:102E2000AC6887194846FFF7C5F803462846394677
:102E30005246A047B0F1FF3F02DD06445645E7DBAE
:102E40005645CBD1DBF818104046FFF791F801202A
:102E50008BF81C00002003B0BDE8F08F90B0FDF7A8
:102E60004DFE00240120CDE90B44CDE90944CDE914
:102E700007440A90102002250B904FF4E0100695AD
:102E8000CDE90D540F9006A80594CDE90344CDE992
:102E90000144FDF7A3FF20B1EFF3108072B600BF2D
:102EA000FEE70F20CDE9010501A80121CDE903448A
:102EB00005944FF00108FDF7B7FE20B1EFF3108045
:102EC00072B600BFFEE741F21800C4F202000168CA
:102ED00040F6000441F0100101600168C4F20104F1
:102EE00001F0100106910699016804F5006541F0B2
:102EF0000401016000684FF4005100F004000690E6
:102F00000698284600224FF400560027FDF7DCFD06
:102F10002046102100224FF0100AFDF7D5FDCDE923
:102F2000066806AE4FF00209284631460897CDF8EC
:102F30002490FDF7C1FC20463146CDE906A8CDE935
:102F40000879FDF7B9FC40F2D85004F52051C2F2DF
:102F500000004FF482724FF4007380E886000A216B
:102F6000C0E90377C0E90573C0F81CA0C0E9087781
:102F7000C0E90A71FEF700F918B1EFF3108072B6DC
:102F8000FEE740F23010C2F20000C0F82C90FFF7CC
:102F90004FF800BFFEE7000070B582B00DF10201EE
:102FA0004FF410600622FFF7DDF840F2FC04C2F295
:102FB0000004D4E9070140F20112C0F206020260E7
:102FC0000A0E02710A0C42710A0AC17100258021A1
:102FD000827105814181C0E90355C0E9055594F826
:102FE0002C10017794F82D10417794F82E108177EA
:102FF00094F82F10C17794F83010E66980F820100B
:1030000094F83110C0F8225080F82110C0F82650F2
:1030100080F82A5006F12B003221FDF7F6F98B20BB
:1030200040F20B11B566C6F86550C6F86150C6F897
:103030005D5000BF321802F81F5CE269024402F8DA
:103040001E5CE269024402F81D5CE269024402F877
:103050001C5CE269024402F81B5CE269024402F86B
:103060001A5CE269024402F8195CE269024402F85F
:10307000185CE269024402F8175CE269024402F853
:10308000165CE269024402F8155CE269024402F847
:10309000145CE269024402F8135CE269024402F83B
:1030A000125CE269024402F8115CE269024402F82F
:1030B000105CE269024402F80F5CE269024402F823
:1030C0000E5CE269024402F80D5CE269024402F817
:1030D0000C5CE269024402F80B5CE269024402F80B
:1030E0000A5CE269024402F8095CE269024402F8FF
:1030F000085CE269024402F8075CE269024402F8F3
:10310000065CE269024402F8055CE269024402F8E6
:10311000045CE269024402F8035CE269024402F8DA
:10312000025CE269024402F8015CE2691554E66956
:10313000203088427FF47EAF48F26320C6F25330DD
:10314000C6F8EC0002B070BD2DE9F04784B040F243
:10315000FC04C2F20004A078FFF788FC002879D0B4
:103160000246A078E16902AF0DF10A03009700F072
:103170005FFABDF80810432967D1E26994F82C3052
:10318000117F994261D1517F94F82D3099425CD1E1
:10319000917F94F82E30994257D1D17F94F82F30F7
:1031A000994252D192F8201094F8303099424CD183
:1031B00092F8211094F83130994246D194F8243095
:1031C00094F8255094F8266094F8271045EA0307F0
:1031D00037430F4325D09DF80AC09C450BD19DF87D
:1031E0000B30AB4207D19DF80C30B34203D19DF8B0
:1031F0000D308B4215D094F828108C4525D19DF8C0
:103200000B1094F8293099421FD19DF80C1094F8B6
:103210002A30994219D19DF80D1094F82B3099421B
:1032200013D180B2F12810D39DF80AC09DF80BE0AD
:103230009DF80C909DF80DA040F20008111802F1C5
:10324000F0050020C2F2000816E0002040B204B0F1
:10325000BDE8F087002040B204B0BDE8F087AE784A
:103260006F782673EE7866732E79A6736E79E6739F
:103270003D4402358D42EED22F78362F00F25E802B
:10328000DFE807F01D1F5F1C5F5F295F5F5F5F5F07
:103290005F5F5F5F5F5F5F5F5F5F5F5F5F5F5F5F3E
:1032A0005F5F5F5F5F5F5F5F5F5F5F5F5F5F5F5F2E
:1032B0005F5F5F5F5F5F5F335F434600CFE701356E
:1032C000D8E7AE782674EE7866742E79A6746E7997
:1032D0000635E674CEE7AE786F782675EE786675BB
:1032E0002E79A6756E79E675C2E7AE782F79C8F8A3
:1032F0000060EB7836046A7946EA03233B4442EAED
:1033000003220635C8F80020B4E7A8780335B1E7F2
:10331000AA7884F82420EA7884F825202A7984F889
:1033200026206A79063584F8272084F828C084F896
:1033300029E084F82A9084F82BA09BE7FF2F3FF424
:103340008AAF6A782A44951C94E700000268014617
:1033500012F8010B0A6070470268014632F8020B4E
:10336000000400BA0A60704710B50B688646D01A90
:103370004FF0000C02284FF0000013DB33F8020B73
:10338000000400BA1C1894420B60CEF8040003D964
:103390000020CEF800C010BDCEF808300A681044F6
:1033A00008600120CEF800C010BD00002DE9F04FEC
:1033B00085B0072804D94FF0FF3005B0BDE8F08F85
:1033C0000446400100F1080738469A4693460E46E7
:1033D000FEF796FE00F00F0105460B296FF0040082
:1033E00000F22381012202FA01F140F61C0211428F
:1033F00000F01B81BBF1000F3DD040F2DE09C2F2AC
:10340000000909EB4408B8F80C000296C0B3002686
:1034100005F00700042800F08E8003284DD0022814
:1034200076D1B8F80C6016BB0E9E03A92046082280
:1034300000F0C4FE07F5807528464021FEF7CEFE59
:103440002846FEF75DFE0028FAD10398BDF810105B
:10345000CAF8000008BABDF81210000C308008BA93
:10346000060C09EB04008021A8F80C6001715E4590
:1034700088BF5E4648E06FF00D0005B0BDE8F08FF4
:103480000120CDE9008707F5407700FA04F801E054
:10349000002E49D12046FFF7E9FA06463846FEF7E6
:1034A0002FFEE0B3002EF3D1B9F8000010EA0800B7
:1034B000EED0002005B0BDE8F08FB8F80C00002871
:1034C00040F0958003A92046062200F077FE07F51C
:1034D000807528464021FEF781FE00BF2846FEF792
:1034E0000FFE0028FAD10398BDF81010CAF80000AA
:1034F00008BA060C09EB04018022A8F80C600A71D6
:10350000BBEB104F38BF5E460299204632466CE056
:103510002046314600F04AFFA8F80C6067E06FF0E3
:10352000030005B0BDE8F08FDDE9008705F0070076
:1035300004287FF472AFB8F80C60002E4ED103A9B6
:103540002046022200F03AFE07F580752846402109
:10355000FEF744FE2846FEF7D3FD0028FAD1BDF859
:103560000C006FF0010100BA01EB1046B0B240F25E
:10357000EB518842A8F80C602CD328461021FEF7A6
:103580002DFE00BF2846FEF7BBFD0028FAD107F547
:1035900000701F21FEF722FE0120B9F80010B9F8D3
:1035A0000220A040814322EA0000A9F80010A9F8F7
:1035B0000200002009EB040107F54074A8F80C0094
:1035C000087100BF2046FEF79BFD00286FF47A705B
:1035D000F8D12AE009EB040080210171B0B258450E
:1035E00088BF5E460299B2B2204600F0E7FD07F5BB
:1035F000807528464021FEF7F1FD00BF2846FEF702
:103600007FFD0028FAD1B8F80C10B0B2891B0A046B
:10361000A8F80C1005D009EB0401097941F001016B
:1036200000E0002109EB0402117105B0BDE8F08F44
:10363000FFF7BCBE10B540F2000342F24D5C42F20F
:10364000B15E42F28554C2F20003C0F6000CC0F62F
:10365000000EC0F600040028C3E902CE1C6118BFAA
:103660009860002918BFD960002A18BF1A6110BDE0
:103670000028024618BF012200290B4618BF01236B
:103680001A4044F2AD72C0F6000218BF024644F27E
:10369000A970C0F6000018BF084640F22801C2F227
:1036A0000001C1E90520704740F2280CC2F2000C6D
:1036B000BCF800309B0500D4FEE7002803460A460C
:1036C00018BF0123002918BF01221A4044F6B11285
:1036D000C0F6000218BF024644F6DD10C0F6000036
:1036E00018BF0846CCE907207047000040F2280CBC
:1036F000C2F2000CBCF800309B0500D4FEE70028A5
:1037000003460A4618BF0123002918BF01221A40A8
:1037100044F68912C0F6000218BF024644F6B510FE
:10372000C0F6000018BF0846CCE909207047000029
:1037300080B582B0FFF730FC40F2FC01C2F200011C
:10374000CA69002040F235135081C3F60453C2F811
:10375000F03091F82C3040F2071C82F8F63091F8E6
:103760003130A2F8F4C082F8FB3040F23243A2F8C4
:10377000FC304B89D1F82DC0A2F8003140F236431D
:10378000A2F8023191F82430C2F8F7C0B1F808C0AD
:1037900082F80431CB8CA2F8FEC091F825C0A2F8C3
:1037A0000631FF2382F805C1A2F80831002200BFCC
:1037B000CB69134483F80A01CB69134483F80B01E6
:1037C000CB69134483F80C01CB69134483F80D01D2
:1037D000CB69134483F80E01CB6913440632B2F56A
:1037E0008D7F83F80F01E3D14FF0FF328878C969EC
:1037F00001924FF0430C01AB4FF40972CDF800C0B9
:1038000000F0FCFB02B080BDF0B583B0FFF7C4FB55
:1038100040F2FC01C2F200010020C1E90900CC69BC
:1038200040F23510C3F60150C4F8F00040F2071022
:10383000A4F8F40091F82C0040F21C0E84F8F60075
:10384000088EC2F2000EB1F82D20A4F8FA009EF8FE
:10385000000091F82F50A4F8F7200C224FF0060C2E
:1038600084F8F950A4F8FC20A0B39EF8015084F825
:10387000FE00E5B313260123C869B2B2104480F8F4
:10388000EC50581C84B21EF80450721C3DB3C86939
:1038900092B2104480F8EC50981C84B21EF8045088
:1038A000B21CE5B1C86992B2104480F8EC50D81C43
:1038B00084B21EF80450F21C8DB1C86992B2104453
:1038C000043380F8EC509CB21EF804500436002DEE
:1038D000D2D106E06FF0060E122606200EE0034657
:1038E00016466FF00602981DA2EB040E03E06FF07F
:1038F000070E0720132691F82F50CC6937232A0989
:1039000003EB1517A02D38BF02F13007B2B22244E5
:1039100082F8EC7091F82F20741C02F00F0202F173
:1039200037050A2A38BF02F13005CA69A4B2224419
:1039300082F8EC5091F83020B41C03EB12171509F3
:10394000A02A38BF05F13007CA69A4B2224482F820
:10395000EC7091F83020F41C02F00F0202F13705F0
:103960000A2A38BF02F13005CA69A4B2224482F89B
:10397000EC5091F83120341D03EB12171509A02AE1
:1039800038BF05F13007CA69A4B2224482F8EC704E
:1039900091F83120741D02F00F0202F137050A2A56
:1039A00038BF02F13005CA69A4B22244B71D82F8BB
:1039B000EC50CA69BCB20EEB04073A4482F8EC0042
:1039C000C869F21D204480F8EC30C86992B21044F6
:1039D00080F8ECC006F10803C8699BB218440123C3
:1039E00080F8EC3006F10902C86992B21044032253
:1039F00080F8EC2006F10A03C8699BB2184480F8ED
:103A0000ECC006F10B02C86992B210440F2280F894
:103A1000EC2006F10C03C8699BB218443A2380F8E5
:103A2000EC3006F10D02C86992B210443B2280F8D6
:103A3000EC2006F10F0006F10E03CA6980B29BB2BA
:103A4000C7081A44FF23262F82F8EC301DD8002225
:103A5000CB69B0F59B7F034483F8EC2015D8CB6984
:103A6000B0F59B7F034483F8ED200ED0CB69B0F511
:103A70009A7F034483F8EE2007D8CB6903440430CF
:103A8000B0F59C7F83F8EF20E2D14FF0FF328878C9
:103A9000C9690292432702AB4FF40972009700F004
:103AA000ADFA03B0F0BD000070B582B0FFF774FA54
:103AB00040F2FC0EC2F2000E9EF80000033801280E
:103AC00014D8DEF81C0000214181BEF80810BEF8B1
:103AD0000A208181C2819EF824509EF825209EF8FC
:103AE00026309EF827108DF8045006E0DEF81C0002
:103AF000FF22FF23FF218DF804208DF8052040F2DE
:103B00003512C3F60352C0F8F02040F20712A0F8B5
:103B1000F4209EF82C208DF80630DEF82D3080F849
:103B2000F6209EF83120FF298DF80710C0F8F730F5
:103B300080F8FB2019D1DEF8082040F23241A0F8CD
:103B4000FC10C0F8FE2040F236419EF82420A0F878
:103B50000211BEF8251080F804219EF82720A0F855
:103B600005111C2180F8072100E0102108440C22D7
:103B700080F8EC20DEF81C0041F0010281180020E2
:103B800040F21C0C81F8EC00C2F2000C9CF80040E2
:103B9000531CCCB3022000BFDEF81C109AB21144B3
:103BA00081F8EC400CEB000212F8014C43F00101EB
:103BB0000CB3DEF81C508EB2354485F8EC401CF88E
:103BC00000509C1CD5B1DEF81C10A6B2314481F81F
:103BD000EC505578D91CA5B1DEF81C408EB23444A7
:103BE00084F8EC5094780433002C00F10400D3D115
:103BF00002380A4608E001381A4604E00A4623461D
:103C000002E0013022460B469EF82F104FF0370C91
:103C10000CEB11150C09A02938BF04F13005DEF8B2
:103C20001C109BB2194481F8EC509EF82F10931C85
:103C300001F00F0101F137040A2938BF01F1300406
:103C4000DEF81C109BB2194481F8EC409EF830104D
:103C5000D31C0CEB11150C09A02938BF04F1300559
:103C6000DEF81C109BB2194481F8EC509EF830101D
:103C7000131D01F00F0101F137040A2938BF01F1CA
:103C80003004DEF81C109BB2194481F8EC409EF819
:103C90003110531D0CEB11150C09A02938BF04F18C
:103CA0003005DEF81C109BB2194481F8EC509EF8E8
:103CB0003110931D01F00F0101F137040A2938BFBB
:103CC00001F13004DEF81C109BB21944D51D81F8B7
:103CD000EC40DEF81C30ACB2811D201A184480F88C
:103CE000E510DEF81C0002F10801204480F8ECC069
:103CF000DEF81C0089B20844082180F8EC1002F1BB
:103D00000903DEF81C009BB21844012380F8EC3054
:103D100002F10A01DEF81C0089B20844032180F890
:103D2000EC1002F10B03DEF81C009BB218440623D2
:103D300080F8EC3002F10C01DEF81C0089B2084476
:103D40000F2180F8EC1002F10D03DEF81C009BB28D
:103D500018443A2380F8EC3002F10E01DEF81C0022
:103D600089B208443B2180F8EC1002F10F03DEF821
:103D70001C009BB218441F2380F8EC3002F11001A4
:103D8000DEF81C0089B20844212180F8EC1002F111
:103D9000120002F11103DEF81C1080B29AB2C308BF
:103DA0001144FF22262B81F8EC2022D8002200BFEC
:103DB000DEF81C10B0F59B7F014481F8EC2018D888
:103DC000DEF81C10B0F59B7F014481F8ED2010D087
:103DD000DEF81C10B0F59A7F014481F8EE2008D877
:103DE000DEF81C1001440430B0F59C7F81F8EF2010
:103DF000DED19EF80200DEF81C10432501AB4FF423
:103E00000972009500F0FAF802B070BD2DE9F04F8C
:103E100081B0072805D94FF0FF36304601B0BDE824
:103E2000F08F0546400100F1080B5846994692462E
:103E30008846FEF765F900F00F000B286FF00406C6
:103E4000EBD8012101FA00F040F61C010842E4D051
:103E50000A9C5846FEF754F9042858D1BAF1000FCD
:103E60006BD0D9F8000000BA20B95846FEF748F9DF
:103E700040075CD52CB95846FEF742F9400740F19F
:103E800081800BF540773846FEF73AF9222818BFB3
:103E900042286FD10BF5406049460422FEF7D0F965
:103EA0000BF58050210AFEF799F90BF58850E1B225
:103EB000FEF794F90BF5F850FEF722F900F03F01F8
:103EC000BAEB812F88BF4FEA802A012000FA05F95A
:103ED00040F2DE00C2F200001FFA8AF6824601E0DC
:103EE000A6425BD92846FEF77FFE04463846FEF719
:103EF00007F900284CD0A642F2D9BAF8000010EA1F
:103F00000900EDD00026304601B0BDE8F08F06462E
:103F10000B98102805D0042809D106F0FE000A28C5
:103F200011D16FF00406304601B0BDE8F08F6FF09C
:103F30000B06304601B0BDE8F08F6FF00D0630463D
:103F400001B0BDE8F08F0BF5406049460422FEF752
:103F500077F906F0030002287FF480AF94B10BF5E7
:103F60008050210AFEF73AF90BF58850E1B2FEF7CE
:103F700035F973E732288DD06FF00606304601B070
:103F8000BDE8F08F6FF00A06304601B0BDE8F08F53
:103F90006FF00306304601B0BDE8F08F2846414679
:103FA000324600F0B9FA0BF5807420462021FEF766
:103FB00015F900BF2046FEF7A3F80028FAD10BF54B
:103FC000007400BF2046FEF79BF8C1060DD400F038
:103FD0001F000007F6D520460821FEF7FFF86FF016
:103FE0000C06304601B0BDE8F08F20461021FEF7E8
:103FF000F5F8304601B0BDE8F08F000080B582B022
:10400000DDF810C04FF0040ECDE900CEFFF7FEFE44
:1040100002B080BD2DE9F04F85B0072804D9FF20FC
:1040200040B205B0BDE8F08F0F4601F00F01044625
:104030000E294FF0FB00F3D89046012299468A40A2
:1040400044F61C431A4211D05FEA497009D4B9F111
:10405000000F25D0022F19D0012F21D119F0210FE7
:104060001ED1FA2040B205B0BDE8F08F0129D7D1AA
:1040700004A94FF470600422FEF774F80498002835
:10408000E2D1FD2040B205B0BDE8F08F09F0A000FC
:1040900020284FF0FA00C3D009F090011029BFD0BA
:1040A000600100F1080A0AF5807630461021FEF71B
:1040B00095F800BF3046FEF723F80028FAD10AF53C
:1040C00000701F21FEF78AF80120A04040F2DE0BAD
:1040D000C2F2000BC243BBF800100392BBF80220EF
:1040E000814322EA0000ABF80010ABF802000BEBB2
:1040F00044010020029188810BEB04010AF5407510
:10410000019108712846FDF7FBFF0028FAD109F05C
:10411000F00040EA07015046FEF760F8B8F1000FE2
:1041200002D04FEA182116E040F26C00C2F2000003
:10413000B0F800804FF6F07708F1010293B24FEA31
:104140001821BB4204BF4CF20002CFF6FF7202807E
:1041500008BF6FF010080AF58060FEF73FF80AF517
:10416000A0605FFA88F1FEF739F830460121FEF7CA
:1041700035F800BF3046FDF7C3FF0028FAD1BBF881
:104180000000039A09F001011040A1400843BBF868
:104190000210ABF8000001EA02000299ABF802003D
:1041A00000208881019908712846FDF7A9FF0028A1
:1041B000FAD0204640B205B0BDE8F08F002A08BF13
:1041C00070472DE9F04F85B040F22807C2F2000792
:1041D0004FEA401BF8680BF1080591460E4605F5BD
:1041E0002054804778698047786ACDE9016470B1CE
:1041F000BA6A62B100208DF80D00200A8DF80E0019
:104200000DF10D0003218DF80F40904708E0396A49
:1042100000208847396A200A8847396AE0B288470F
:10422000F8698047B9690646884738698047F86861
:104230004FEA062805F5245A804778698047786A4E
:1042400078B1BA6A6AB100208DF80D004FEA1A20E1
:104250008DF80E000DF10D0003218DF80FA0904791
:104260000AE0396A00208847396A4FEA1A208847ED
:10427000396A5FFA8AF08847F8698047B969064663
:10428000884738698047F96846EA08064BF0180005
:1042900000EB0625884778698047786AA0B1BA6A3A
:1042A00092B1280C8DF80D00280A8DF80E000DF142
:1042B0000D0003218DF80F5090477A6A0198494606
:1042C0009047DDF8088015E0396AC5F30740884754
:1042D000396AC5F307208847396AE8B288470198E8
:1042E000DDF80880451E4C46F8698047013C05F81A
:1042F000010FF9D1B86980473869804706EB090595
:10430000F968A8B2040A884778698047BA6A48F011
:10431000040672B100208DF810004FEA18208DF8C5
:10432000110004A804218DF812608DF81340904705
:104330000CE0396A00208847396A4FEA182088471C
:10434000396AF0B28847396A20468847B869804799
:1043500038698047F868804778698047BA6A4AF0C8
:10436000040472B100208DF810004FEA1A208DF875
:10437000110004A804218DF812408DF813509047C5
:104380000CE0396A00208847396A4FEA1A208847CA
:10439000396AE0B28847396AE8B28847B869804725
:1043A0003869804705B0BDE8F04F70472DE9F0430C
:1043B00083B040F228064001C2F2000600F108076F
:1043C000F068894607F52058804770698047706A11
:1043D00078B1B26A6AB100208DF805004FEA182062
:1043E0008DF806000DF1050003218DF80780904738
:1043F0000AE0316A00208847316A4FEA182088476E
:10440000316A5FFA88F08847F0698047B1690546EC
:10441000884730698047F0682C0207F524578047A9
:1044200070698047706A70B1B26A62B100208DF81D
:104430000500380A8DF806000DF1050003218DF8FE
:104440000770904708E0316A00208847316A380ACF
:104450008847316AF8B28847F0698047B1690546F4
:1044600088473069804744EA05008144F1681FFAB3
:1044700089F0040A884770698047B26A48F00405E9
:1044800072B100208DF808004FEA18208DF809005D
:1044900002A804218DF80A508DF80B4090470CE0DB
:1044A000316A00208847316A4FEA18208847316A0C
:1044B000E8B28847316A20468847B069804730694A
:1044C0008047F068804770698047B26A47F004040B
:1044D0006AB100208DF80800380A8DF8090002A89A
:1044E00004218DF80A408DF80B9090470CE0316A5A
:1044F00000208847316A380A8847316AE0B2884725
:10450000316A5FFA89F08847B0698047306980472F
:1045100003B0BDE8F0830000002A08BF70472DE912
:10452000F04F85B040F22807C2F200074FEA401B67
:10453000F8680BF1080591460E4605F510548047C2
:1045400078698047786ACDE9016470B1BA6A62B16E
:1045500000208DF80D00200A8DF80E000DF10D00E1
:1045600003218DF80F40904708E0396A0020884702
:10457000396A200A8847396AE0B28847F869804773
:10458000B9690646884738698047F8684FEA0628BF
:1045900005F5145A804778698047786A78B1BA6A15
:1045A0006AB100208DF80D004FEA1A208DF80E0038
:1045B0000DF10D0003218DF80FA090470AE0396A34
:1045C00000208847396A4FEA1A208847396A5FFA1B
:1045D0008AF08847F8698047B9690646884738698C
:1045E0008047F96846EA08064BF0100000EB062504
:1045F000884778698047BA6A45F0040492B1280C6C
:104600008DF80D00280A8DF80E000DF10D00032124
:104610008DF80F409047BA6A019849469047DDF8F7
:10462000088015E0396AC5F307408847396AC5F341
:1046300007208847396AE0B288470198DDF808808A
:10464000441E4D46396A14F8010F8847013DF9D1DF
:10465000B86980473869804706EB0905F968A8B250
:10466000040A884778698047BA6A48F0040672B13C
:1046700000208DF810004FEA18208DF8110004A8D2
:1046800004218DF812608DF8134090470CE0396AD0
:1046900000208847396A4FEA18208847396AF0B203
:1046A0008847396A20468847B86980473869804713
:1046B000F868804778698047BA6A4AF0040472B1A2
:1046C00000208DF810004FEA1A208DF8110004A880
:1046D00004218DF812408DF8135090470CE0396A90
:1046E00000208847396A4FEA1A208847396AE0B2C1
:1046F0008847396AE8B28847B8698047386980478F
:1047000005B0BDE8F04F70470A46014640F2D85068
:10471000C2F200004FF0FF33FCF7C6BD80B582B097
:1047200040F2D850C2F200000DF1070101224FF013
:10473000FF33FCF7B9FD9DF8070002B080BD000013
:1047400040F60000C4F2010010210022FCF7BCB9C1
:1047500040F60000C4F2010010210122FCF7B4B9B8
:104760000A46014640F2D850C2F200004FF0FF3333
:10477000FCF79ABE80B582B08DF8070040F2D850A1
:10478000C2F200000DF1070101224FF0FF33FCF7E8
:104790008BFE02B080BD000000787047017070474A
:1047A000704700007047000070470000704700002D
:1047B000B0B50C46054600F013F9002D59D0297804
:1047C0000806B0F1805F00F387806878084400062F
:1047D000B0F1805F00F38080AA7800EB0260B0F156
:1047E000805F79DCEA7800EB0260B0F1805F73DC17
:1047F0002A7900EB0260B0F1805F6DDC6A7900EB32
:104800000260B0F1805F67DCAA7900EB026000F023
:104810007F40B0F1805F5FDCEA7900EB0260B0F1CD
:10482000805F59DC41F60870FDF7D8FC697841F6E5
:104830002870FDF7D3FCA97841F64870FDF7CEFC4F
:10484000E97841F66870FDF7C9FC297941F688706E
:10485000FDF7C4FC697941F6A870FDF7BFFCA979A2
:1048600041F6C870FDF7BAFCE97941F6E870FDF74A
:10487000B5FC002C5AD021780806B0F1805F2BDC03
:10488000607808440006B0F1805F25DCA27800EB78
:104890000260B0F1805F1FDCE27800EB0260B0F1F3
:1048A000805F19DC227900EB0260B0F1805F13DCDD
:1048B000627900EB0260B0F1805F0DDCA27900EB61
:1048C000026000F07F40B0F1805F05DCE27900EB30
:1048D0000260B0F1805F02DDFF2040B2B0BD41F662
:1048E0000860FDF77BFC617841F62860FDF776FCF7
:1048F000A17841F64860FDF771FCE17841F6686007
:10490000FDF76CFC217941F68860FDF767FC617961
:1049100041F6A860FDF762FCA17941F6C860FDF799
:104920005DFCE17941F6E860FDF758FC002040B2FB
:10493000B0BD000010B504464FF4106021460622B9
:10494000FDF77EFC04F10E014FF480700422FDF7A8
:1049500077FC04F10A014FF4A0600422FDF770FC1B
:10496000A11D4FF470600422FDF76AFC40F2D800EC
:10497000A17CC2F20000E27CA37D4170A18A82701A
:10498000A0F80310037010BDF0B581B069B140F21A
:1049900028070C46451E0026C2F20007F86980472A
:1049A0000136A64205F8010FF8D301B0F0BD0000B2
:1049B00000207047F0B581B069B140F228070C467D
:1049C000451E0026C2F20007396A15F8010F884714
:1049D0000136A642F8D301B0F0BD000070470000D8
:1049E000F0B585B00DF102044FF4106021460622A7
:1049F000FDF7B8FB04AD4FF4807029460422FDF7A3
:104A0000B1FB03AE4FF4A06031460422FDF7AAFBD0
:104A100002AF4FF4706039460422FDF7A3FB00207B
:104A20008021FDF7DBFB0020FDF76AFB4FF41060EF
:104A300021460622FDF704FC4FF48070294604222B
:104A4000FDF7FEFB4FF4A06031460422FDF7F8FBB2
:104A50004FF4706039460422FDF7F2FB05B0F0BD5B
:104A6000026811700168013101607047CA1701EBDB
:104A700012620368120A1A700268531C03605170B4
:104A8000016801310160704770B5012A04460ADBF4
:104A90002068110A017020681546411C216042708F
:104AA0002068194612E00E46C1B13046FBF7CCFB38
:104AB0000546C01705EB10602168000A08702068E1
:104AC0002A46411C21604570206831460130206033
:104AD000FBF724FC20682844206070BD206800217A
:104AE000017020680125421C226041702068284422
:104AF000206070BD000000000000000001020304FF
:104B000006070809010202030405060708090A0B43
:104B10000C0D0E0F1010434845434B5F49505F4347
:104B20004F4E464C49435400484B000800000020BB
:104B30007800000028010008C04B00087800002021
:104B4000C00C000044010008FFFFFFFF0A00000046
:104B50004D250008B125000885250008010000004A
:104B60001000000057495A6E6574000000127A0068
:104B7000000257353530300000000000A147000822
:104B8000A5470008AD470008A94700089947000855
:104B90009D4700080000000000000000DEADBEEFF1
:104BA000FEED00000000000000000000000000001A
:104BB0000000020000C053544D2D524543560000E2
:04000005080000ED02
:00000001FF
